:060000000A128A110E280D
:10000800FE00030EF2000408F3000A08F4000A12C6
:100018008A11F12A0A128A111128F601F701F8014A
:1000280083120313B801B901BA01BB01BC01BD01B8
:10003800BE01BF01C001C101C201C301C401C501A4
:1000480083010A128A1128280A128A1163250A12C2
:100058008A110A128A119A260A128A1133308312D7
:100068000313A6000030A7004308AE00AF012E0816
:10007800A8002F08A9000A128A1139240A128A1125
:10008800831203132608B0003008BE003330A600E0
:100098000030A7004308AE00AF012E08A0002F08CB
:1000A800A1006430A2000030A3000A128A11C425FE
:1000B8000A128A11831203132108A9002008A80034
:1000C8000A128A1139240A128A1183120313260884
:1000D800B0002708B1003E08B200B3013208A00002
:1000E8003308A1009C30A200FF30A3000A128A1135
:1000F800C4250A128A118312031320083007B60098
:1001080021080318210A3107B7000A30A600003079
:10011800A7003708A9003608A8000A128A1139244E
:100128000A128A11831203132608AE002E08BD0096
:100138003330A6000030A7004308AE00AF012E08F8
:10014800A0002F08A1006430A2000030A3000A120A
:100158008A11C4250A128A11831203132108A900DF
:100168002008A8000A128A1139240A128A11831257
:1001780003132608B0002708B1009C30B2003208EB
:10018800F5003E080A128A1144260A128A118312BF
:100198000313B300F630B4003408F5003D080A1222
:1001A8008A1144260A128A1183120313330730076F
:1001B800B5003508BC003330A6000030A70042085F
:1001C800AE00AF012E08A8002F08A9000A128A1154
:1001D80039240A128A11831203132608B000300842
:1001E800BB003330A6000030A7004208AE00AF01C4
:1001F8002E08A0002F08A1006430A2000030A30040
:100208000A128A11C4250A128A11831203132108BB
:10021800A9002008A8000A128A1139240A128A1192
:10022800831203132608B0002708B1003B08B20068
:10023800B3013208A0003308A1009C30A200FF30AF
:10024800A3000A128A11C4250A128A118312031301
:1002580020083007B60021080318210A3107B70023
:100268000A30A6000030A7003708A9003608A80001
:100278000A128A1139240A128A11831203132608D2
:10028800AE002E08C1003330A6000030A700420897
:10029800AE00AF012E08A0002F08A1006430A20014
:1002A8000030A3000A128A11C4250A128A11831287
:1002B80003132108A9002008A8000A128A1139246A
:1002C8000A128A11831203132608B0002708B10006
:1002D8009C30B2003208F5003B080A128A11442605
:1002E8000A128A1183120313B300F630B4003408DB
:1002F800F50041080A128A1144260A128A1183124B
:10030800031333073007B5003508C0006430A60072
:100318000030A7004508AE00AF012E08A8002F083E
:10032800A9000A128A1139240A128A1183120313A6
:100338002608B0003008BF006430A0000030A100DB
:100348004508AE00AF012E08A2002F08A3000A122C
:100358008A1108250A128A11831203132008B00093
:100368003008BA000A30A6000030A7003A08AE00EC
:10037800AF012E08A8002F08A9000A128A113924F3
:100388000A128A11831203132608B0003008B90034
:100398000A30A0000030A1004508AE00AF012E08C9
:1003A800A2002F08A3000A128A1108250A128A112E
:1003B800831203132008B0003008B8000A303D0249
:1003C800031CE729E829EC290930AE002E08BD00F6
:1003D8000A303C02031CF129F229F6290930AE0043
:1003E8002E08BC000A304102031CFB29FC29002A04
:1003F8000930AE002E08C1000A304002031C052A4D
:10040800062A0A2A0930AE002E08C00006303E022D
:10041800031C0F2A102A142A0530AE002E08BE002D
:1004280006303B02031C192A1A2A1E2A0530AE0080
:100438002E08BE0006304502031C232A242A282A37
:100448000530AE002E08BE00A301A30A02300A122E
:100458008A11EB250A128A11831203133E08303ED3
:100468000A128A112C260A128A11033083120313E6
:10047800AE002E08A30002300A128A11EB250A12D8
:100488008A11831203133D08303E0A128A112C2662
:100498000A128A11043083120313AE002E08A30037
:1004A80002300A128A11EB250A128A1183120313E9
:1004B8003C08303E0A128A112C260A128A1107308B
:1004C80083120313AE002E08A30002300A128A1109
:1004D800EB250A128A11831203133B08303E0A12D5
:1004E8008A112C260A128A11093083120313AE00CE
:1004F8002E08A30002300A128A11EB250A128A116B
:10050800831203134108303E0A128A112C260A125C
:100518008A110A3083120313AE002E08A30002309A
:100528000A128A11EB250A128A1183120313400852
:10053800303E0A128A112C260A128A110D308312B3
:100548000313AE002E08A30002300A128A11EB250D
:100558000A128A11831203133F08303E0A128A11C5
:100568002C260A128A110E3083120313AE002E08AD
:10057800A30002300A128A11EB250A128A1183128B
:1005880003133908303E0A128A112C260A128A11DE
:100598000F3083120313AE002E08A30002300A1294
:1005A8008A11EB250A128A11831203133808303E88
:1005B8000A128A112C260A128A1115308312031383
:1005C8004402031CE82AE92A3228C40183160313CB
:1005D8000C1632280A128A110E280B1DF42AF52A45
:1005E800FC2A0130F000700883120313C4070B11B2
:1005F800831203130C1F012B022B2B2B122B1E080B
:10060800F0007008C3001F15F601222B1E08F00029
:100618007008C2001F11F601F60A222B7608F000B6
:10062800F1017108003A03191A2B222B7008003ABD
:1006380003190A2B013A0319032B222B0C13273019
:10064800F000F00B252B282B831203139F148C1E0C
:100658002E2B2F2B502B86160D301A06031D352BEB
:10066800362B4B2B86122E307806031D3C2B3D2B48
:10067800422B0130F0007008C507502B2D3078064A
:10068800031D472B482B502B0130C502502B1A084D
:10069800F0007008F800502B0C1E532B542BC52B60
:1006A8009C2B3E08303E9900F701F70AC42B2E30E8
:1006B80099000230F0007008F700C42B3D08303E66
:1006C80099000330F0007008F700C42B3C08303E56
:1006D80099000430F0007008F700C42B2D30990001
:1006E8000530F0007008F700C42B3B08303E990035
:1006F8000630F0007008F700C42B2E309900073040
:10070800F0007008F700C42B4108303E990008300B
:10071800F0007008F700C42B4008303E99000930FB
:10072800F0007008F700C42B0D309900F701C42BB6
:100738007708F000F1017108003A0319A42BC42BC3
:100748007008003A0319552B013A03195B2B033A39
:100758000319622B013A03196A2B073A0319722B02
:10076800013A0319792B033A0319812B013A03192A
:10077800882B0F3A0319902B013A0319982BC42B95
:100788000C1274088A0073088400720E8300FE0E2F
:100798007E0E0900033083120313A7002708A30065
:1007A80001300A128A11EB250A128A1106300A1240
:1007B8008A119B250A128A1183120313A301A30A23
:1007C80002300A128A11EB250A128A1101300A1224
:1007D8008A119B250A128A11083083120313A70075
:1007E8002708A30001300A128A11EB250A128A1180
:1007F80009300A128A119B250A128A1107308312BE
:100808000313A7002708A30002300A128A11EB2558
:100818000A128A1101300A128A119B250A128A11BA
:100828000D3083120313A7002708A30001300A1212
:100838008A11EB250A128A110C300A128A119B259B
:100848000A128A110D3083120313A7002708A30088
:1008580002300A128A11EB250A128A1103300A1291
:100868008A119B250A128A11080083120313AB010F
:10087800A71F3F2C402C472CA609A709A60A031935
:10088800A70AAB01AB0AA91F4A2C4B2C542CA80968
:10089800A909A80A0319A90A0130F5007508AB06C9
:1008A800AC01AD012608270403195B2C5C2C932CA2
:1008B800AA01AA0A6A2C01300310A60DA70DFF3E53
:1008C800031D602C0130F5007508AA07A71F6D2CC1
:1008D8006E2C5F2C01300310AC0DAD0DFF3E031DD7
:1008E8006F2C27082902031D7B2C26082802031CCD
:1008F8007E2C7F2C862C2608A8022708031CA90317
:10090800A9022C1401300310A70CA60CFF3E031DEE
:10091800872C0130AA02031D922C932C6E2C2B08D5
:100928000319972C982C9D2CAC09AD09AC0A031916
:10093800AD0A2D08A7002C08A6000800683083120D
:100948000313A400E330A300A30BA82CA40BA82C2A
:10095800AD2C00300A128A11A6260A128A118F308D
:1009680083120313A400D930A300A30BB92CA40B42
:10097800B92CBE2C30300A128A1111260A128A119B
:10098800343083120313A400F130A300A30BCA2C44
:10099800A40BCA2C30300A128A1111260A128A11A5
:1009A800023083120313A500FB30A4007A30A300A1
:1009B800A30BDC2CA40BDC2CA50BDC2C00003030AA
:1009C8000A128A1111260A128A1138300A128A115B
:1009D80011260A128A1110300A128A1111260A12D7
:1009E8008A1101300A128A1111260A128A11063058
:1009F8000A128A1111260A128A110C300A128A1157
:100A080011260A128A11080083120313A501A31FD5
:100A18000E2D0F2D162DA209A309A20A0319A30A48
:100A2800A501A50AA11F192D1A2D1F2DA009A1097D
:100A3800A00A0319A10A200821040319242D252D31
:100A4800542DA401A40A332D01300310A00DA10DCB
:100A5800FF3E031D292D0130F5007508A407A11FCD
:100A6800362D372D282D21082302031D3D2D200862
:100A78002202031C402D412D472D2008A2022108E7
:100A8800031CA303A30201300310A10CA00CFF3E1A
:100A9800031D482D0130A402031D532D542D372D5D
:100AA80025080319582D592D5E2DA209A309A20A5C
:100AB8000319A30A2308A1002208A000080083162E
:100AC8000317890103308800033083160313850058
:100AD800C0308700880189018312031385018701CB
:100AE80088018901831603130F178F160F160F1429
:100AF8000A128A115B260A128A118B178B160B11A0
:100B08000B17831603130C17831203130C130A1203
:100B18008A11A2240A128A110A128A1171260A124B
:100B28008A110A128A11CE230A128A110800831226
:100B38000313A400A201A301B62D220824078400F0
:100B48000A128A1186260A128A110A128A112C267A
:100B58000A128A11013083120313A2070318A30A89
:100B68000030A3072208240784000A128A11862667
:100B78000A128A11003A031DC22DC32DA12D0800A7
:100B880083120313A401A501201CCB2DCC2DD22D3B
:100B98002208A4070318A50A2308A5070130031093
:100BA800A20DA30DFF3E031DD32D01300310A10C90
:100BB800A00CFF3E031DDA2D20082104031DE52D9E
:100BC800E62DC82D2508A1002408A00008008312DE
:100BD8000313A5002503031DF22DF32DFF2D230874
:100BE8007F3EA4002408A60026080A128A111126AE
:100BF8000A128A11102E02302506031D042E052E16
:100C0800102E2308BF3EA4002408A60026080A12B6
:100C18008A1111260A128A11080083120313A200EE
:100C2800091022080A128A11A6260A128A118312AA
:100C3800031389140D3083120313A100FB30A000A5
:100C4800A00B242EA10B242E831203138910080055
:100C580083120313A100091421080A128A11A62677
:100C68000A128A1183120313891420308312031382
:100C7800A000A00B3D2E000083120313891008006A
:100C880083120313A200A101221C4B2E4C2E502EBE
:100C98007508A0002008A1070310F50D0310A20C89
:100CA8002208031D582E592E482E210808008316A5
:100CB80003139F131F129F12831203131F083F3938
:100CC80080389F00C3309F051F142130F500F50BB5
:100CD8006B2E831203139F14080083160313181234
:100CE8001815831603178715CF3083160313990039
:100CF8009A018312031398171813181683160313EF
:100D08009816080006308A000408840A820700340E
:100D180030342E34303430340034533431340034E9
:100D280053343234003453343334003483160313C9
:100D380081128111011581140114D9308312031312
:100D480081000800F5007508831203138800080065
:04400E00D420FF3F7C
:00000001FF
