:060000000A128A110C280F
:10000800FE00030EF0000A08F1000A128A11952872
:100018000A128A110F28F401F50183010A128A11C4
:100028008028831603130F178F160F120F149F13B0
:100038001F129F12831203131F083F3980389F0035
:10004800C3309F051030F200F20B282800008312FD
:1000580003131F14831603139F131F129F12831277
:1000680003131F08C33904389F001030F200F20B45
:100078003B280000831203131F148B170B178B16D2
:100088000B11831603130C17831203130C138B1510
:100098000B106030831603139600850186018701D3
:1000A800880189018312031385018601870188016C
:1000B8008901831603178901033088008316031307
:1000C800811395010800F300831203139F186D280C
:1000D8006E287F287308F200F20DF20D1F087206D1
:1000E800C33972069F004230F200F20B79280000F3
:1000F800831203139F1408000A128A1115200A128A
:100108008A1100300A128A1167200A128A110130F6
:100118000A128A1167200A128A1185280A128A117E
:100128000C2871088A00700E8300FE0E7E0E0900EE
:04400E00D420FF3F7C
:00000001FF
