:060000000A128A110C280F
:10000800FE00030EF1000A08F2000A128A11C02A43
:100018000A128A110F28F801F901FA018312031351
:10002800B401B501B601B701B801B901BA01BB0104
:10003800BC01BD01BE01BF01C00183010A128A11C2
:1000480025280A128A110E250A128A1133308312C2
:100058000313A2000030A3004008AA00AB012A083D
:10006800A4002B08A5000A128A11F1230A128A118A
:10007800831203132208AC002C08BD003330A20001
:100088000030A3004008AA00AB012A08F3002B089F
:10009800F4006430F5000030F6000A128A11482591
:1000A8000A128A11740883120313A5007308A400A6
:1000B8000A128A11F1230A128A11831203132208E1
:1000C800AC002308AD009C30AE002E08F3003D08BC
:1000D8000A128A1108260A128A11831203132C079E
:1000E800AF002F08BB003330A2000030A300400847
:1000F800AA00AB012A08F3002B08F4006430F500CD
:100108000030F6000A128A1148250A128A1174086A
:1001180083120313A5007308A4000A128A11F1239D
:100128000A128A11831203132208AC002308AD00B7
:100138009C30AE002E08F3003D080A128A110826EA
:100148000A128A1183120313AF00F630B000300888
:10015800F3003B080A128A1108260A128A11831230
:1001680003132F072C07B1003108BA003330A2005F
:100178000030A3003F08AA00AB012A08A4002B08FE
:10018800A5000A128A11F1230A128A118312031395
:100198002208AC002C08BC003330A2000030A300B9
:1001A8003F08AA00AB012A08F3002B08F4006430CA
:1001B800F5000030F6000A128A1148250A128A1141
:1001C800740883120313A5007308A4000A128A1185
:1001D800F1230A128A11831203132208AC002308A0
:1001E800AD003C08AE00AF012E08F3002F08F40064
:1001F8009C30F500FF30F6000A128A1148250A12D1
:100208008A117308831203132C07B20074080318A9
:10021800740A2D07B3000A30A2000030A300330887
:10022800A5003208A4000A128A11F1230A128A11C1
:10023800831203132208AA002A08B9003330A20047
:100248000030A3003F08AA00AB012A08F3002B08DE
:10025800F4006430F5000030F6000A128A114825CF
:100268000A128A11740883120313A5007308A400E4
:100278000A128A11F1230A128A118312031322081F
:10028800AC002308AD009C30AE002E08F3003C08FB
:100298000A128A1108260A128A1183120313AF0060
:1002A800F630B0003008F30039080A128A1108261F
:1002B8000A128A11831203132F072C07B100310881
:1002C800B8006430A2000030A3003E08AA00AB01C9
:1002D8002A08A4002B08A5000A128A11F1230A1281
:1002E8008A11831203132208AC002C08B70064306B
:1002F800F3000030F4003E08AA00AB012A08F5001C
:100308002B08F6000A128A115A240A128A11730855
:1003180083120313AC002C08B6000A30A200003088
:10032800A3003608AA00AB012A08A4002B08A500E0
:100338000A128A11F1230A128A118312031322085E
:10034800AC002C08B5000A30F3000030F4003E0879
:10035800AA00AB012A08F5002B08F6000A128A1138
:100368005A240A128A11730883120313AC002C084A
:10037800B4000A303B02031CC229C329C72909302B
:10038800AA002A08BB000A303A02031CCC29CD294E
:10039800D1290930AA002A08BA000A303902031CF8
:1003A800D629D729DB290930AA002A08B9000A303A
:1003B8003802031CE029E129E5290930AA002A08A6
:1003C800B80006303D02031CEA29EB29EF29053065
:1003D800AA002A08BD0006303C02031CF429F529AE
:1003E800F9290530AA002A08BD0006303E02031C80
:1003F800FE29FF29032A0530AA002A08BD00F701B3
:10040800F70A02300A128A119C250A128A118312ED
:1004180003133D08303E0A128A11F3250A128A1185
:10042800033083120313AA002A08F70002300A12C5
:100438008A119C250A128A11831203133B08303E45
:100448000A128A11F3250A128A110430831203133F
:10045800AA002A08F70002300A128A119C250A12FB
:100468008A11831203133A08303E0A128A11F325BF
:100478000A128A11073083120313AA002A08F70008
:1004880002300A128A119C250A128A118312031358
:100498003C08303E0A128A11F3250A128A110930E3
:1004A80083120313AA002A08F70002300A128A11DD
:1004B8009C250A128A11831203133908303E0A1246
:1004C8008A11F3250A128A110A3083120313AA002B
:1004D8002A08F70002300A128A119C250A128A118A
:1004E800831203133808303E0A128A11F3250A12C0
:1004F8008A110D3083120313AA002A08F70002306C
:100508000A128A119C250A128A11831203133708CA
:10051800303E0A128A11F3250A128A110E3083120C
:100528000313AA002A08F70002300A128A119C2530
:100538000A128A11831203133508303E0A128A11EF
:10054800F3250A128A110F3083120313AA002A080E
:10055800F70002300A128A119C250A128A118312A6
:1005680003133408303E0A128A11F3250A128A113D
:100578002A280A128A110C28831203130C1FC52A71
:10058800C62AE22A7903031DCA2ACB2AD22A1E08C0
:10059800F0007008C0001F15F901D92A1E08F000E4
:1005A8007008BF001F11F901F90A0C131A30F00086
:1005B800F00BDC2A0000831203139F148C1EE52A1B
:1005C800E62AFB2A86160D301A06031DEC2AED2AA8
:1005D800F72A86122B30F0007008FA000130F0007C
:1005E8007008BE07FB2A1A08F0007008FA000C1EF3
:1005F800FE2AFF2A812B7808031D032B042B0A2BC4
:100608003D08303E9900F801F80A802B7803031D55
:100618000E2B0F2B162B2E3099000230F00070088D
:10062800F800802B02307806031D1B2B1C2B242B73
:100638003B08303E99000330F0007008F800802B2A
:1006480003307806031D292B2A2B322B3A08303E1B
:1006580099000430F0007008F800802B0430780608
:10066800031D372B382B3F2B2D3099000530F00018
:100678007008F800802B05307806031D442B452BA5
:100688004D2B3C08303E99000630F0007008F80009
:10069800802B06307806031D522B532B5A2B2E30F5
:1006A80099000730F0007008F800802B07307806B2
:1006B800031D5F2B602B682B3908303E99000830EA
:1006C800F0007008F800802B08307806031D6D2BA9
:1006D8006E2B762B3808303E99000930F0007008F0
:1006E800F800802B09307806031D7B2B7C2B802B90
:1006F8000D309900F801802B0C1272088A00710ED7
:100708008300FE0E7E0E0900033083120313A3003C
:100718002308F70001300A128A119C250A128A114F
:1007280006300A128A1173250A128A11F701F70A8C
:1007380002300A128A119C250A128A1101300A1203
:100748008A1173250A128A11083083120313A30031
:100758002308F70001300A128A119C250A128A110F
:1007680009300A128A1173250A128A110730831276
:100778000313A3002308F70002300A128A119C25EC
:100788000A128A1101300A128A1173250A128A1173
:100798000D3083120313A3002308F70001300A1257
:1007A8008A119C250A128A110C300A128A117325A3
:1007B8000A128A110D3083120313A3002308F700CD
:1007C80002300A128A119C250A128A1101300A1273
:1007D8008A1173250A128A11080083120313A701CC
:1007E800A31FF72BF82BFF2BA209A309A20A0319B1
:1007F800A30AA701A70AA51F022C032C0C2CA409E5
:10080800A509A40A0319A50A0130F7007708A70665
:10081800A801A901220823040319132C142C4B2C1A
:10082800A601A60A222C01300310A20DA30DFF3E3B
:10083800031D182C0130F7007708A607A31F252CE5
:10084800262C172C01300310A80DA90DFF3E031DFF
:10085800272C23082502031D332C22082402031CFD
:10086800362C372C3E2C2208A4022308031CA5038F
:10087800A502281401300310A30CA20CFF3E031D8F
:100888003F2C0130A602031D4A2C4B2C262C27088E
:1008980003194F2C502C552CA809A909A80A03198B
:1008A800A90A2908A3002808A20008008312031334
:1008B800A101F61F602C612C682CF509F609F50AD0
:1008C8000319F60AA101A10AF41F6B2C6C2C712CD8
:1008D800F309F409F30A0319F40A730874040319F1
:1008E800762C772CA62CA001A00A852C01300310A9
:1008F800F30DF40DFF3E031D7B2C0130F700770844
:10090800A007F41F882C892C7A2C74087602031D02
:100918008F2C73087502031C922C932C992C730846
:10092800F5027408031CF603F60201300310F40CF8
:10093800F30CFF3E031D9A2C0130A002031DA52CC9
:10094800A62C892C21080319AA2CAB2CB02CF5094C
:10095800F609F50A0319F60A7608F4007508F30093
:1009680008004130F500EE30F400F40BB92CF50B1B
:10097800B92C000000300A128A1131260A128A1195
:100988004130F500EE30F400F40BC82CF50BC82C00
:10099800000030300A128A1131260A128A114130B9
:1009A800F500EE30F400F40BD72CF50BD72C000033
:1009B80030300A128A1131260A128A110230F600E2
:1009C8000430F500BA30F400F40BE82CF50BE82CF1
:1009D800F60BE82C000030300A128A1131260A1270
:1009E8008A1110300A128A1131260A128A1101302E
:1009F8000A128A1131260A128A1106300A128A113D
:100A080031260A128A110C300A128A1131260A126A
:100A18008A110800831603130F178F160F120F146D
:100A28008B170B178B160B110C17831203130C1350
:100A38000A128A11DC250A128A110A128A11B524AF
:100A48000A128A110A128A1188230A128A118B152E
:100A58000B1060308316031396000330850086015F
:100A680087018801890183120313850186018701A3
:100A780088018901831603178901033088008316CA
:100A8800031381139501080083120313A001A10128
:100A9800731C4F2D502D582D750883120313A00772
:100AA8000318A10A7608A10701300310F50DF60D09
:100AB800FF3E031D592D01300310F40CF30CFF3ECB
:100AC800031D602D73087404031D6B2D6C2D4C2DB4
:100AD800831203132108F4002008F300080083128E
:100AE8000313A200A001A1018E2D20082207840073
:100AF8000A128A111D260A128A110A128A11F3256E
:100B08000A128A11013083120313A0070318A10ADD
:100B18000030A1072008220784000A128A111D2626
:100B28000A128A11003A031D9A2D9B2D792D08006F
:100B380083120313A1002103031DA32DA42DB02D9F
:100B480077087F3EA0002008A20022080A128A1116
:100B5800C2250A128A11C12D02302106031DB52DA6
:100B6800B62DC12D7708BF3EA0002008A20022089C
:100B78000A128A11C2250A128A110800F600831285
:100B88000313091076080A128A1131260A128A11EB
:100B98008312031389146830F500E430F400F40B71
:100BA800D32DF50BD32D00008312031389100800F1
:100BB800831603139F131F129F12831203131F0818
:100BC8003F3980389F00C3309F051F141030F30051
:100BD800F30BEC2D0000831203139F140800F5009B
:100BE80083120313091475080A128A1131260A128E
:100BF8008A118312031389142130F400F40B022E96
:100C08008312031389100800F600F501761C0D2ED7
:100C18000E2E122E7308F4007408F5070310F30D56
:100C28000310F60C7608031D1A2E1B2E0A2E7508C3
:100C3800080006308A000408840A82070034303429
:100C48002E34303430340034533431340034533497
:100C580032340034533433340034F30073088312CD
:060C6800031388000800E0
:04400E00D420FF3F7C
:00000001FF
